:100000009FC00000CCC00000CAC00000C8C00000F3
:10001000C6C00000C4C00000C2C00000C0C00000D4
:10002000BEC00000BCC00000BAC00000B8C00000E4
:10003000B6C00000B4C00000B2C00000B0C00000F4
:10004000AEC00000ACC00000AAC00000A8C0000004
:10005000A6C00000A4C00000A2C00000B9C20000F9
:100060009EC00000DCC4000010C5000098C0000065
:1000700096C0000094C0000092C0000090C0000034
:100080008EC000008CC000008AC0000088C0000044
:1000900086C0000084C0000082C0000080C0000054
:1000A0007EC000007CC000007AC0000078C0000064
:1000B00076C0000074C0000072C0000070C0000074
:1000C0006EC000006CC000006AC0000068C0000084
:1000D00066C0000064C0000062C0000060C0000094
:1000E0005EC000005B4552524F525D204661696C14
:1000F000656420746F2070617273652067636F643C
:100100006521004E414E494E495459494E46CDCC89
:10011000CC3D0AD7233C17B7D13877CC2B329595F5
:10012000E6241FB14F0A000020410000C8420040F1
:100130001C4620BCBE4CCA1B0E5AAEC59D7477052A
:1001400011241FBECFEFD1E2DEBFCDBF00E00CBF58
:1001500012E0A0E0B2E0EAEBF4E100E00BBF02C085
:1001600007900D92AE32B107D9F723E0AEE2B2E0CC
:1001700001C01D92AE31B207E1F711E0C0E4D1E059
:1001800000E005C022970109FE010BBFAFD7CE33B7
:10019000D10780E00807B1F7EED40C945B0A30CFAA
:1001A00026E040E052EC61E070E08FE792E0D7D3C8
:1001B000109231021092300208958FE792E0C0D27F
:1001C000181619061CF58FE792E0D3D22091300261
:1001D00030913102F901EE5CFD4F8A3011F08D3023
:1001E00071F4108282E392E0D0D0811105C064EEF8
:1001F00070E08FE792E02DD510923202089580834F
:100200002F5F3F4F309331022093300208954F9279
:100210005F926F927F928F929F92AF92BF92CF9296
:10022000DF92EF92FF920F931F93CF93DF93CDB79F
:10023000DEB760970FB6F894DEBF0FBECDBF670183
:1002400078016091720270917302809174029091B2
:10025000750213D69B01AC01C701B6010AD5DAD5E8
:100260002B013C01FFD169837A838B839C8377FCCC
:1002700003C001E010E002C00FEF1FEF9801442718
:1002800037FD4095542F2D873E874F87588BEAD1F5
:100290006D837E838F839887609172027091730261
:1002A0008091740290917502E8D569877A878B876F
:1002B0009C87C301B201E1D59B01AC0160910002B2
:1002C0007091010280910202909103023BD54B0193
:1002D0005C016D817E818F81988529813A814B8176
:1002E0005C81621B730B840B950BC5D520E030E05D
:1002F0004AE754E427D59B01AC01C501B40171D68E
:100300004B015C016D857E858F859889B6D59B01F3
:10031000AC01C501B40165D69B01AC0169857A8544
:100320008B859C85A7D476D56093720270937302F7
:1003300080937402909375020F3F3FEF130739F0DB
:100340009CD5A7019601FAD487FFA1CF07C095D508
:10035000A701960142D618160CF099CF60960FB6F9
:10036000F894DEBF0FBECDBFDF91CF911F910F91EB
:10037000FF90EF90DF90CF90BF90AF909F908F90C5
:100380007F906F905F904F9008953F924F925F9251
:100390006F927F928F929F92AF92BF92CF92DF9295
:1003A000EF92FF920F931F93CF93DF93CDB7DEB7FA
:1003B000C850D1400FB6F894DEBF0FBECDBF64E089
:1003C00072E09BD68C0164E072E0CE010196A1D66A
:1003D000E12CF12C01151105C1F0C70124E0880FB3
:1003E000991F2A95E1F7B80121E030E02C0F3D1F5D
:1003F000820F931F8ED63FEFE31AF30A64E072E098
:1004000080E090E07AD68C01E5CF66E072E0CE0124
:10041000019676D6892BB9F48E010F5F1F4F812C80
:10042000912CA12CB12C6501CF5FDE4FA882B9823F
:10043000CA82DB82C150D140A60195012501360157
:1004400080E3382E15C069E072E0CE01019658D6DF
:10045000892B11F3A3C0893569F5F8013082C801F1
:1004600049D69B01AC01FFEF8F1A9F0A005F1F4F17
:10047000E814F9040CF487C0F8018081883559F735
:100480003082C801CB5FDE4F2883C550D140CA5FA0
:10049000DE4F3883C650D140C95FDE4F4883C75016
:1004A000D140C85FDE4F5883C850D14023D62B01BE
:1004B0003C0122C08A35A9F5F8013082C801CB5F22
:1004C000DE4F2883C550D140CA5FDE4F3883C65007
:1004D000D140C95FDE4F4883C750D140C85FDE4F6F
:1004E0005883C850D14006D6CF5FDE4F68837983EA
:1004F0008A839B83C150D140CB5FDE4F2881C5509A
:10050000D140CA5FDE4F3881C650D140C95FDE4F4F
:100510004881C750D140C85FDE4F5881C850D14094
:10052000A2CF853409F09FCFF8013082C801CB5F9C
:10053000DE4F2883C550D140CA5FDE4F3883C65096
:10054000D140C95FDE4F4883C750D140C85FDE4FFE
:100550005883C850D140CED55B016C01C85FDE4FD7
:100560005881C850D140C95FDE4F4881C750D14043
:10057000CA5FDE4F3881C650D140CB5FDE4F288145
:10058000C550D14070CFCF5FDE4FE880F9800A813F
:100590001B81C150D140C301B20139DE81E0C85F87
:1005A000DE4F0FB6F894DEBF0FBECDBFDF91CF9107
:1005B0001F910F91FF90EF90DF90CF90BF90AF9081
:1005C0009F908F907F906F905F904F903F90089595
:1005D0001F920F920FB60F9211242F933F938F9378
:1005E0009F93AF93BF938091770290917802A091EF
:1005F0007902B0917A023091760223E0230F2D37F1
:1006000020F40196A11DB11D05C026E8230F029616
:10061000A11DB11D209376028093770290937802FA
:10062000A0937902B0937A0280917B0290917C0230
:10063000A0917D02B0917E020196A11DB11D809313
:100640007B0290937C02A0937D02B0937E02BF91C7
:10065000AF919F918F913F912F910F900FBE0F906F
:100660001F9018952FB7F8946091770270917802D7
:100670008091790290917A022FBF0895789484B581
:10068000826084BD84B5816084BD85B5826085BD8E
:1006900085B5816085BDEEE6F0E080818160808374
:1006A000E1E8F0E010828081826080838081816057
:1006B0008083E0E8F0E0808181608083E1EBF0E01E
:1006C000808184608083E0EBF0E0808181608083C2
:1006D000E1E9F0E0808182608083808181608083B5
:1006E000E0E9F0E0808181608083E1EAF0E08081F0
:1006F00082608083808181608083E0EAF0E0808195
:1007000081608083E1E2F1E080818260808380818A
:1007100081608083E0E2F1E0808181608083EAE7AC
:10072000F0E080818460808380818260808380812A
:10073000816080838081806880831092C1000895E9
:10074000FC01818D228D90E0805C9F4F821B91097E
:100750008F7399270895FC01918D828D981731F040
:10076000828DE80FF11D858D90E008958FEF9FEF4A
:100770000895FC01918D828D981761F0828DDF01C3
:10078000A80FB11D5D968C91928D9F5F9F73928F84
:1007900090E008958FEF9FEF08958EE695E0892B06
:1007A00039F080E090E0892B19F098D1811125C0B3
:1007B00080E090E0892B41F080E090E0892B21F0EF
:1007C0000E94000081111CC080E090E0892B41F064
:1007D00080E090E0892B21F00E940000811113C07D
:1007E00080E090E0892BA1F080E090E0892B81F0FF
:1007F0000E94000081110AC008950E940000D8CF15
:100800000E940000E1CF0E940000EACF0C9400009B
:100810000895FC01848DDF01A80FB11DA35ABF4FBD
:100820002C91848D90E001968F739927848FA689EF
:10083000B7892C93A089B1898C9180648C93938D16
:10084000848D981306C00288F389E02D80818F7D06
:1008500080830895CF93DF93EC01888D8823C1F0C6
:10086000EA89FB89808185FD05C0A889B9898C91B9
:1008700086FD0EC00FB607FCF5CF808185FFF2CF55
:10088000A889B9898C9185FFEDCFCE01C2DFE8CF71
:10089000DF91CF910895CF92DF92FF920F931F9334
:1008A000CF93DF931F92CDB7DEB76C0181E0D60105
:1008B00058968C9358975B969C915B975C968C911D
:1008C0005C97981307C05096ED91FC9151978081E9
:1008D00085FD2DC0F601038D10E00F5F1F4F0F73D4
:1008E0001127F02EF601848DF81210C00FB607FC08
:1008F000F9CFD6015096ED91FC915197808185FFFB
:10090000F1CFC601698385DF6981ECCF838DE80F64
:10091000F11DE35AFF4F6083D6015B960C935B9702
:100920005296ED91FC915397808180620CC0D60164
:100930005696ED91FC91579760835096ED91FC91FE
:10094000519780818064808381E090E00F90DF91F7
:10095000CF911F910F91FF90DF90CF900895BF929C
:10096000CF92DF92EF92FF92CF93DF93EC016A0177
:100970007B01B22EE889F98982E08083411581EEFE
:1009800058076105710599F060E079E08DE390E02A
:10099000A701960189D32150310941095109569582
:1009A000479537952795211580E1380790F0E8891C
:1009B000F989108260E874E88EE190E0A701960161
:1009C00073D32150310941095109569547953795FF
:1009D0002795EC85FD853083EE85FF852083188E75
:1009E000EC89FD89B082EA89FB89808180618083FE
:1009F000EA89FB89808188608083EA89FB8980811C
:100A000080688083EA89FB8980818F7D8083DF9184
:100A1000CF91FF90EF90DF90CF90BF9008951F92FD
:100A20000F920FB60F9211240BB60F922F938F9344
:100A30009F93EF93FF93E0918F02F091900280815A
:100A4000E0919502F091960282FD12C09081809112
:100A500098028F5F8F7320919902821751F0E09175
:100A60009802F0E0E158FD4F958F8093980201C005
:100A70008081FF91EF919F918F912F910F900BBEED
:100A80000F900FBE0F901F9018951F920F920FB6E8
:100A90000F9211240BB60F922F933F934F935F93B6
:100AA0006F937F938F939F93AF93BF93EF93FF9336
:100AB0008FE792E0AEDEFF91EF91BF91AF919F91F2
:100AC0008F917F916F915F914F913F912F910F90F7
:100AD0000BBE0F900FBE0F901F9018958FE792E0FE
:100AE0002FDE21E0892B09F420E0822F0895109257
:100AF00082021092810288EE93E0A0E0B0E0809341
:100B0000830290938402A0938502B093860280E1D1
:100B100092E09093800280937F0285EC90E0909326
:100B20008C0280938B0284EC90E090938E028093F1
:100B30008D0280EC90E09093900280938F0281EC84
:100B400090E0909392028093910282EC90E09093D7
:100B500094028093930286EC90E0909396028093A7
:100B60009502109298021092990210929A02109295
:100B70009B020895089582DDFDDF12DBCDECD3E00A
:100B80001CDB2097E9F309DEFBCFCF92DF92EF92D7
:100B9000FF920F931F93CF93DF937C016A01EB01C8
:100BA00000E010E00C151D0571F06991D701ED9181
:100BB000FC910190F081E02DC7011995892B19F066
:100BC0000F5F1F4FEFCFC801DF91CF911F910F91A2
:100BD000FF90EF90DF90CF9008956115710581F03F
:100BE000DB010D900020E9F7AD0141505109461B92
:100BF000570BDC01ED91FC910280F381E02D1994FB
:100C000080E090E00895EF92FF920F931F93CF93AF
:100C1000DF938C017B01C0E0D0E0F701EC0FFD1FFA
:100C20006491662359F0F801A081B181ED91FC91A6
:100C3000C8011995892B11F02196EFCFCE01DF91D4
:100C4000CF911F910F91FF90EF9008956CE172E0AA
:100C5000C4CF0F931F93CF93DF93EC01D4DF8C01AC
:100C6000CE01F4DF800F911FDF91CF911F910F9183
:100C700008955058BB27AA270ED075C166D130F011
:100C80006BD120F031F49F3F11F41EF45BC10EF4E0
:100C9000E095E7FB51C1E92F77D180F3BA176207DE
:100CA00073078407950718F071F49EF58FC10EF451
:100CB000E0950B2EBA2FA02D0B01B90190010C016C
:100CC000CA01A0011124FF27591B99F0593F50F484
:100CD000503E68F11A16F040A22F232F342F4427DC
:100CE000585FF3CF469537952795A795F0405395D4
:100CF000C9F77EF41F16BA0B620B730B840BBAF0A4
:100D00009150A1F0FF0FBB1F661F771F881FC2F70E
:100D10000EC0BA0F621F731F841F48F48795779522
:100D20006795B795F7959E3F08F0B3CF9395880FD9
:100D300008F09927EE0F979587950895D9D008F474
:100D400081E008950CD00FC107D140F0FED030F003
:100D500021F45F3F19F0F0C0511139C1F3C014D133
:100D600098F39923C9F35523B1F3951B550BBB2772
:100D7000AA2762177307840738F09F5F5F4F220F1F
:100D8000331F441FAA1FA9F333D00E2E3AF0E0E818
:100D900030D091505040E695001CCAF729D0FE2F64
:100DA00027D0660F771F881FBB1F261737074807F6
:100DB000AB07B0E809F0BB0B802DBF01FF279358AC
:100DC0005F4F2AF09E3F510568F0B6C000C15F3FFB
:100DD000ECF3983EDCF3869577956795B795F79594
:100DE0009F5FC9F7880F911D9695879597F908958C
:100DF000E1E0660F771F881FBB1F62177307840728
:100E0000BA0720F0621B730B840BBA0BEE1F88F736
:100E1000E095089504D06894B111D9C00895BCD06C
:100E200088F09F5790F0B92F9927B751A0F0D1F0D3
:100E3000660F771F881F991F1AF0BA95C9F712C05D
:100E4000B13081F0C3D0B1E00895C0C0672F782FD2
:100E50008827B85F39F0B93FCCF3869577956795C9
:100E6000B395D9F73EF490958095709561957F4F35
:100E70008F4F9F4F0895E89409C097FB3EF49095DB
:100E80008095709561957F4F8F4F9F4F9923A9F063
:100E9000F92F96E9BB279395F695879577956795F2
:100EA000B795F111F8CFFAF4BB0F11F460FF1BC036
:100EB0006F5F7F4F8F4F9F4F16C0882311F096E9C9
:100EC00011C0772321F09EE8872F762F05C0662377
:100ED00071F096E8862F70E060E02AF09A95660F30
:100EE000771F881FDAF7880F9695879597F90895E9
:100EF000990F0008550FAA0BE0E8FEEF161617062B
:100F0000E807F907C0F012161306E407F50798F092
:100F1000621B730B840B950B39F40A2661F0232BAB
:100F2000242B252B21F408950A2609F4A140A69527
:100F30008FEF811D811D089597F99F6780E870E00C
:100F400060E008959FEF80EC089500240A9416163F
:100F5000170618060906089500240A9412161306A7
:100F6000140605060895092E0394000C11F4882335
:100F700052F0BB0F40F4BF2B11F460FF04C06F5F51
:100F80007F4F8F4F9F4F089557FD9058440F551F27
:100F900059F05F3F71F04795880F97FB991F61F0FB
:100FA0009F3F79F087950895121613061406551F72
:100FB000F2CF4695F1DF08C0161617061806991FDE
:100FC000F1CF86957105610508940895E894BB27D3
:100FD00066277727CB0197F908958ADF08F48FEF0A
:100FE00008950BD0C0CFB1DF28F0B6DF18F09523FD
:100FF00009F0A2CFA7CF1124EACFC6DFA0F3959FB7
:10100000D1F3950F50E0551F629FF001729FBB27EF
:10101000F00DB11D639FAA27F00DB11DAA1F649F9B
:101020006627B00DA11D661F829F2227B00DA11D4E
:10103000621F739FB00DA11D621F839FA00D611DD4
:10104000221F749F3327A00D611D231F849F600DF5
:10105000211D822F762F6A2F11249F5750408AF02E
:10106000E1F088234AF0EE0FFF1FBB1F661F771FBA
:10107000881F91505040A9F79E3F510570F05CCFFA
:10108000A6CF5F3FECF3983EDCF3869577956795A6
:10109000B795F795E7959F5FC1F7FE2B880F911DD8
:1010A0009695879597F90895A1E21A2EAA1BBB1B66
:1010B000FD010DC0AA1FBB1FEE1FFF1FA217B30724
:1010C000E407F50720F0A21BB30BE40BF50B661F3A
:1010D000771F881F991F1A9469F7609570958095FE
:1010E00090959B01AC01BD01CF0108950790F69149
:1010F000E02D1994662777273AC04EE252E010C0DF
:10110000FB01DC018D91019080190110D9F3990B3D
:101110000895FB01DC0101900D920020E1F7089594
:10112000FA01A191B081009719F41097E1F0CD0177
:10113000DC01CD010D90002011F4C00113C0FB01B2
:101140002191222319F02015D9F7F3CFFB0121912A
:10115000201519F41E92119606C02223C1F70D9096
:101160000020A1F7D001FA01A193B08308958F92D6
:101170009F92AF92BF92CF92DF92EF92FF920F9326
:101180001F93CF93DF938B016115710521F0DB0174
:101190008C9311969C93EC015E01BFEFAB1ABB0AD6
:1011A0007501C8808C2D90E04AD1892B11F0E501A2
:1011B000F3CFEDE2CE1208C07E01F2E0EF0EF11C9B
:1011C000C980DD24D39409C02BE2C21205C07E0180
:1011D00042E0E40EF11CC980D12CE701219743E0E5
:1011E00050E06BE071E0CE0132D1892BB9F4239647
:1011F00045E050E066E071E0CE0129D1892B09F489
:1012000025960115110519F0D801CD93DC93D11065
:1012100000C160E070E080E89FE704C143E050E077
:1012200063E071E0CE0113D1892B59F4011511054A
:1012300009F4F4C0B2E0EB0EF11CF801F182E08297
:10124000EDC0F70160E070E0CB01C0E0D0E07F01CD
:10125000A0EDAA2EAC0C29E02A1528F14D2D4260F4
:10126000B42E2D2D2870D2FE04C0211124C0219649
:1012700022C021112197A5E0B0E09B01AC0102D171
:10128000660F771F881F991F6A0D711D811D911DA3
:101290006839A9E97A078A07A9E19A0760F0BD2DA4
:1012A000B660BB2E08C02EEFA2120AC0D3FC50C0FD
:1012B0004D2D4860B42E3196D701CC90DB2CC7CF92
:1012C0002C2D2F7D253409F043C0A081AD3241F48F
:1012D000BD2DB061DB2E7F0122E0E20EF11C0CC0BF
:1012E0007F01AB3231F04FEFE41AF40A21E030E035
:1012F00006C0A2E0EA0EF11CA18122E030E0A0537A
:10130000AA3018F0E21AF30A23C0F70120E030E017
:101310002038BCE03B075CF4A901440F551F440F83
:10132000551F240F351F220F331F2A0F311DAF0108
:101330004F5F5F4F7A01A081A053AA3010F4FA01E9
:10134000E7CFD4FE03C0319521953109C20FD31FD9
:10135000D1FE09C00115110531F0E1E0EE1AF108E6
:10136000D801ED92FC9287DD2D2D2370233019F0EA
:101370004B015C0106C04B015C01B7FAB094B7F8B1
:10138000B09420E030E0A901C501B401D7DC882386
:1013900009F43CC0D7FF06C0D195C195D10902E23E
:1013A00011E002C00AE311E06801B8E1CB1AD108EC
:1013B00090E2E92EF12CCE15DF056CF0F8012591B5
:1013C000359145915491C501B4010BDE4B015C018F
:1013D000CE19DF09F0CF04501109F594E7940C15EC
:1013E0001D0549F78A2D880F8B2D881F8F3F41F0EF
:1013F00020E030E0A901C501B401A0DC811106C0E4
:1014000082E290E090931D0380931C03C501B40118
:1014100009C060E070E080E89FEF04C060E070E029
:1014200080EC9FE7DF91CF911F910F91FF90EF909C
:10143000DF90CF90BF90AF909F908F9008959111C3
:101440001EC0803219F089508550D0F70895FB01F5
:10145000DC014150504088F08D9181341CF08B3577
:101460000CF4805E659161341CF06B350CF4605EA9
:10147000861B611171F3990B0895881BFCCF992786
:101480008827089509D0A59F900DB49F900DA49F23
:10149000800D911D11240895A29FB001B39FC0013A
:1014A000A39F700D811D1124911DB29F700D811D90
:0A14B0001124911D0895F894FFCF58
:1014BA0000002041200047300047310000000000B2
:1014CA004B04C505A003B903AB032A040D0A006E39
:0E14DA00616E00696E66006F7666002E00007F
:00000001FF
